:020000020000FC
:0200000016C028
:0200040053C0E7
:020008006CC0CA
:02002000E9C035
:10002C0065C004E00EBF0FE50DBFF0E0E0E6D0E0E8
:10003C00C0E70AEF008309EF018303EF02830BEEA5
:10004C0003830DEF088309E1098307ED0A830FE5AC
:10005C000B830BE20C830EE70D830EEF0E830DE189
:10006C000F830FEF08870FE7098700270FEF0ABBF5
:10007C0004BB00270EE001BB929A939AF89400E817
:10008C0000BD09E109B9002708E90AB9002706E80B
:10009C0000BDF89400270AE005BF00EC0BBF0ABFB7
:1000AC00A1E47894038105BB08810BBB0E940D0170
:1000BC00028105BB08810BBB0E940D01018105BBB0
:1000CC0008810BBB0E940D01008105BB08810BBB95
:1000DC000E940D01E6CFA13421F0A23419F0A33413
:1000EC0011F038C01CC0B4E0B9BF4AC00F930CB1BA
:1000FC00013011F0003081F0A13431F0A23431F034
:10010C00A33431F0A43401F00F9124C00F9107C037
:10011C000F91B4E0B9BF34C00F91A4E4C2CFB0E0EA
:10012C00B9BFB8BFF894A3E4008105BB1BBB0E9408
:10013C000D01018105BB2BBB0E940D01028105BB8A
:10014C003BBB0E940D01038105BB4BBB0E940D0103
:10015C007894E8CF002703E00EBD00E00DBD01E070
:10016C000CBD04E009BFA1E004E008BF0027112783
:10017C002227332744276627772788279927A2E445
:10018C00A2E4F894008105BBC0E7C60F18811BBB25
:10019C000E940D010E940D010E940D01018105BB01
:1001AC00C0E7C70F28812BBB0E940D010E940D01D7
:1001BC000E940D01028105BBC0E7C80F38813BBB13
:1001CC000E940D010E940D010E940D01038105BBCF
:1001DC00C0E7C90F48814BBB0E940D010E940D0165
:1001EC000E940D017894CCCF63956A3009F0189574
:1001FC0066277395763009F01895772783958A30A2
:10020C0009F0189588279395963071F318955FEF40
:06021C005A95F1F7089568
:00000001FF
